:08000000803102288731F12F45
:10055200640080010131890BAA2A0034F1000C30B9
:10056200F000700826009304710820009B001C15FF
:100572000800F1000C30F000700826009A0471089F
:1005820020009B001C150800F1000C30F0007008E0
:1005920025009304710820009B001C150800F1003F
:1005A2000C30F000700825009A04710820009B00AE
:1005B2001C1508002000211FE02A22008D172000B0
:1005C200211E080022008D130800F001F101200015
:1005D200911AF62A0130F0070030F13D0330710222
:1005E200E83003197002031CE82A230019080800E6
:1005F2007108F3007008F200F336F20CF336F20CD5
:1006020072082600910070080339F2000330F235B7
:10061200FF3E031D082B7235F30073089304080094
:100622007108F3007008F200F336F20CF336F20CA4
:1006320072082600980070080339F2000330F23580
:10064200FF3E031D202B7235F30073089A04080045
:100652007108F3007008F200F336F20CF336F20C74
:1006620072082500910070080339F2000330F23558
:10067200FF3E031D382B7235F30073089304080004
:100682007108F3007008F200F336F20CF336F20C44
:1006920072082500980070080339F2000330F23521
:1006A200FF3E031D502B7235F30073089A040800B5
:1006B2002000201C08000030F0000030F1008231E0
:1006C200F92283310030F0000030F1008331112330
:1006D20083310030F0000030F1008331292383316F
:1006E2000030F0000030F1008331412308008B011B
:1006F20021000D158D16103023009B0090309D00B7
:1007020024309E007030210099008B132200911337
:1007120023008C0121008C0123008D010230210075
:100722008D0022001E149D1720001C1408002000BA
:100732009C14FF308231AF228331FF308231BA22E2
:100742008331FF308231C5228331FF308231D022A2
:1007520083310030F0000030F1008231F922833120
:100762000030F0000030F10083311123833100307A
:10077200F0000030F1008331292383310030F00092
:100782000030F100833141230800F000F101F20151
:10079200F301F40123009D181D121D162000911A69
:1007A200DF2B0130F1070030F23D0030720264307D
:1007B20003197102031CCF2BF101F2012300190866
:1007C2007006031DE62B013008000130F3070030EC
:1007D200F43D003074020A3003197302031CCB2B60
:1007E200F301F4010030080083317823833183312F
:1007F20098238331212CF801F90183315923833164
:1008020085313B25833184315D2483318231DB2282
:10081200833186311926833187310527833184312B
:1008220024248331013A0319FC2B0130F8070030EC
:10083200F93D003079020A3003197802031C102CAA
:10084200F801F901102CF601F70180308331C6233B
:100852008431013A031D5B2CF601F7010030770267
:1008620006300319760203184B2C8231E6228431BA
:10087200F5007608203E8600870175088100013068
:10088200F6070030F73D0030770206300319760292
:10089200031C362C200021082207230724072507E2
:1008A20020077F398331C6238431013A031D5B2C33
:1008B20001300800003008002000A01CC02C2F08C6
:1008C2003906031D662C2E083806031D952C39089F
:1008D200803AF40083307402031D712CC030380258
:1008E2000318832C30302000B8070030B93D390896
:1008F200F101F1073808F001F00783314123843117
:1009020022000C1720002F08803AF4008330740272
:10091200031D8D2CC0302E02031808003030200039
:10092200AE070030AF3D08003908803AF40080304D
:100932007402031D9E2C01303802031CAE2CD030F1
:100942002000B807FF30B93D3908F101F107380836
:10095200F001F00783314123843120002F08803ACF
:10096200F40080307402031DB82C01302E02031CE7
:100972000800D0302000AE07FF30AF3D0800201D38
:10098200222D31083906031DC82C30083806031DF4
:10099200F72C3908803AF40083307402031DD32CFB
:1009A200C03038020318E52C30302000B807003080
:1009B200B93D3908F101F1073808F001F007833138
:1009C2004123843122000C1320003108803AF400C4
:1009D20083307402031DEF2CC0303002031808006C
:1009E20030302000B0070030B13D08003908803AAD
:1009F200F40080307402031D002D01303802031C04
:100A0200102DD0302000B807FF30B93D3908F10170
:100A1200F1073808F001F0078331412384312000C7
:100A22003108803AF40080307402031D1A2D01301F
:100A32003002031C0800D0302000B007FF30B13D67
:100A420008003908803AF40080307402031D2B2D0F
:100A520001303802031C0800D0302000B807FF30F4
:100A6200B93D3908F101F1073808F001F007833187
:100A7200412308002000A01D9E2D33083B06031DC4
:100A8200442D32083A06031D732D3B08803AF400C8
:100A920083307402031D4F2DC0303A020318612DBA
:100AA20030302000BA070030BB3D3B08F101F107AE
:100AB2003A08F001F00783312923853122008C178F
:100AC20020003308803AF40083307402031D6B2D3A
:100AD200C03032020318080030302000B207003064
:100AE200B33D08003B08803AF40080307402031DD5
:100AF2007C2D01303A02031C8C2DD0302000BA0725
:100B0200FF30BB3D3B08F101F1073A08F001F00765
:100B120083312923853120003308803AF400803064
:100B22007402031D962D01303202031C0800D030DE
:100B32002000B207FF30B33D0800201E002E35080A
:100B42003B06031DA62D34083A06031DD52D3B088E
:100B5200803AF40083307402031DB12DC0303A0292
:100B62000318C32D30302000BA070030BB3D3B08CC
:100B7200F101F1073A08F001F007833129238531A9
:100B820022008C1320003508803AF400833074026E
:100B9200031DCD2DC0303402031808003030200070
:100BA200B4070030B53D08003B08803AF4008030BD
:100BB2007402031DDE2D01303A02031CEE2DD030EB
:100BC2002000BA07FF30BB3D3B08F101F1073A08AC
:100BD200F001F00783312923853120003508803A5E
:100BE200F40080307402031DF82D01303402031C1E
:100BF2000800D0302000B407FF30B53D08003B08A4
:100C0200803AF40080307402031D092E01303A024A
:100C1200031C0800D0302000BA07FF30BB3D3B0860
:100C2200F101F1073A08F001F007833129230800A6
:100C32007730200024020318832E0B302402031C79
:100C4200832EA508031D832E2B087D06031D2B2E44
:100C52002A087C06031D592E7D08803AF400833051
:100C62007402031D362EF0307C020318472E3030FA
:100C7200FC070030FD3D7D08F101F1077C08F00121
:100C8200F0078231F922863122008C1420002B08D1
:100C9200803AF40083307402031D512EF0302A0290
:100CA2000318080030302000AA070030AB3D0800CE
:100CB2007D08803AF40080307402031D622E0130F8
:100CC2007C02031C712ED030FC07FF30FD3D7D08F5
:100CD200F101F1077C08F001F0078231F922863137
:100CE20020002B08803AF40080307402031D7B2E12
:100CF20001302A02031C0800D0302000AA07FF306E
:100D0200AB3D0800773024020318ED2E0B3024028D
:100D1200031CED2E25087F3A031DED2E2D087D06BE
:100D2200031D952E2C087C06031DC32E7D08803AD8
:100D3200F40083307402031DA02EF0307C020318ED
:100D4200B12E3030FC070030FD3D7D08F101F10786
:100D52007C08F001F0078231F922863122008C10E2
:100D620020002D08803AF40083307402031DBB2E4C
:100D7200F0302C020318080030302000AC0700309D
:100D8200AD3D08007D08803AF40080307402031DF6
:100D9200CC2E01307C02031CDB2ED030FC07FF304E
:100DA200FD3D7D08F101F1077C08F001F007823179
:100DB200F922863120002D08803AF4008030740236
:100DC200031DE52E01302C02031C0800D030200048
:100DD200AC07FF30AD3D08007D08803AF40080305A
:100DE2007402031DF62E01307C02031C0800D03071
:100DF200FC07FF30FD3D7D08F101F1077C08F001A1
:100E0200F0078231F922080077302000220203180D
:100E12006F2F0B302202031C6F2FA308031D6F2FAD
:100E220027087B06031D172F26087A06031D452F68
:100E32007B08803AF40083307402031D222FF030C5
:100E42007A020318332F3030FA070030FB3D7B085B
:100E5200F101F1077A08F001F0078331112387319C
:100E620022000C1420002708803AF4008330740218
:100E7200031D3D2FF03026020318080030302000F9
:100E8200A6070030A73D08007B08803AF4008030B6
:100E92007402031D4E2F01307A02031C5D2FD030E5
:100EA200FA07FF30FB3D7B08F101F1077A08F001F8
:100EB200F00783311123873120002708803AF4009C
:100EC20080307402031D672F01302602031C0800C4
:100ED200D0302000A607FF30A73D0800773022025D
:100EE2000318D92F0B302202031CD92F23087F3A73
:100EF200031DD92F29087B06031D812F28087A0696
:100F0200031DAF2F7B08803AF40083307402031D67
:100F12008C2FF0307A0203189D2F3030FA07003000
:100F2200FB3D7B08F101F1077A08F001F0078331FC
:100F32001123873122000C1020002908803AF40086
:100F420083307402031DA72FF03028020318080013
:100F520030302000A8070030A93D08007B08803A05
:100F6200F40080307402031DB82F01307A02031C92
:100F7200C72FD030FA07FF30FB3D7B08F101F107A4
:100F82007A08F001F0078331112387312000290804
:100F9200803AF40080307402031DD12F0130280200
:100FA200031C0800D0302000A807FF30A93D08002C
:100FB2007B08803AF40080307402031DE22F013076
:100FC2007A02031C0800D030FA07FF30FB3D7B0891
:100FD200F101F1077A08F001F007833111230800CB
:100FE200FA01FB01FC01FD01203084000030850084
:0E0FF2001D308231A9227E1020008331F52BA4
:020000040001F9
:04000E0084CFFFDBC1
:00000001FF
