:08000000803102288731F42F42
:100CD600F001F1012000911A7B2E0130F00700305F
:100CE600F13D03307102E83003197002031C6D2ECA
:100CF6002300190808002000A11E080022008C10FD
:100D06000C140030F0000230F1008631AC2686313A
:100D160022008C170C130030F0000230F1008631EF
:100D2600C42608002000211F080022008C140C1085
:100D36000030F0000230F1008631AC268631220008
:100D46008C130C170030F0000230F1008631C426F7
:100D560008007108F3007008F200F336F20CF3365F
:100D6600F20C72082600910070080339F200033075
:100D7600F235FF3E031DBB2E7235F3007308930454
:100D860008007108F3007008F200F336F20CF3362F
:100D9600F20C72082600980070080339F20003303E
:100DA600F235FF3E031DD32E7235F30073089A0405
:100DB60008008B0121008D140D15103023009B00B7
:100DC60090309D0024309E007030210099008B13D6
:100DD6002200911323008C0121008C0123008D0138
:100DE600023021008D0022001E149D1320001C14C9
:100DF60008008631DC2686310C2F8731852786311F
:100E060087314F27863186319526863186317E2673
:100E16008631F801F9018731BB278631013A03197A
:100E2600002F0130F8070030F93D003079020A3012
:100E360003197802031C0E2F0C2FF000F101F201AA
:100E4600F301F40123009D181D121D162000911AAE
:100E5600392F0130F1070030F23D00307202643064
:100E660003197102031C292FF101F201230019084D
:100E76007006031D402F013008000130F3070030D3
:100E8600F43D003074020A3003197302031C252F47
:100E9600F301F40100300800643020002202031838
:100EA600652F25302202031C652F2308031D652F9D
:100EB60022008C130C170030F0000230F10086314E
:100EC600C426080064302000220203187C2F253037
:100ED6002202031C7C2F7F302306031D7C2F220059
:100EE6008C170C130030F0000230F1008631C42656
:100EF600080022008C130C130030F000F10086313C
:100F0600C426080064302000240203189B2F2530D5
:100F16002402031C9B2F2508031D9B2F22008C10E7
:100F26000C140030F0000230F1008631AC260800C7
:100F36006430200024020318B22F25302402031C3B
:100F4600B22F7F302506031DB22F22008C140C1001
:100F56000030F0000230F1008631AC260800220095
:100F66008C100C100030F000F1008631AC26080021
:100F7600F601F7018030873120278731013A031DBA
:100F8600F22FF601F70100307702063003197602D8
:100F96000318E22F86316B268731F5007608203E4E
:100FA60086008701750881000130F6070030F73D9D
:100FB60000307702063003197602031CCD2F20007D
:100FC6002108220723072407250720077F398731B1
:100FD60020278731013A031DF22F01300800003027
:100FE6000800FA01FB01FC01A001A101A201A30175
:0A0FF600A401A50120008631FC2EA5
:020000040001F9
:04000E0084CFFFDBC1
:00000001FF
