:04000000FAEF00F023
:100008002D82FACF0EF0FBCF0FF0E9CF10F0EACF38
:1000180011F0E1CF12F0E2CF13F0D9CF14F0DACF1C
:1000280015F0F3CF16F0F4CF17F0F6CF18F0F7CF9E
:1000380019F0F8CF1AF0F5CF1BF0F2B8F2A20AD0F7
:10004800F292F29E3A0E026EFF0E66EC01F00F017C
:100058004D8F0300F0B6F0A052D0F09080BA4FD088
:10006800200E026EFF0E66EC01F00F013F910F01AA
:100078003F930F013FB9FDD73BCF1CF01CC00CF0DC
:100088000C3A0F0E0C160C500A0D1CC00DF00F0E7A
:100098000D160D50F326000EF422010EF324016E06
:1000A800000EF420026E000E046E3C0E036EF9EC96
:1000B80001F001501C6E0F013F910F013F931CC0CE
:1000C80001F0026A000E046E0A0E036EF9EC01F0EC
:1000D80001C00CF002C00DF00F0E0C161CC001F090
:1000E800026A000E046E0A0E036EB7EC01F00138C6
:1000F800F00B0C240F013B6F000E0F013A6FF0B8A4
:10010800F0A24FD0F09282B44CD0200E026EFF0EB7
:1001180066EC01F00F013F810F013F930F013FB9DA
:10012800FDD73ACF1DF01DC00CF00C3A0F0E0C167F
:100138000C500A0D1DC00DF00F0E0D160D50F326B4
:10014800000EF422010EF324016E000EF420026E5C
:10015800000E046E180E036EF9EC01F001501D6ECE
:100168000F013F810F013F931DC001F0026A000E8D
:10017800046E0A0E036EF9EC01F001C00CF002C027
:100188000DF00F0E0C161DC001F0026A000E046E71
:100198000A0E036EB7EC01F00138F00B0C240F01C6
:1001A8003A6F9DB09EA004D09E90CF68FCEC00F002
:1001B8001BC0F5FF1AC0F8FF19C0F7FF18C0F6FFFB
:1001C80017C0F4FF16C0F3FF15C0DAFF14C0D9FF3B
:1001D80013C0E2FF12C0E1FF11C0EAFF10C0E9FF3F
:1001E8000FC0FBFF0EC0FAFF2D92110087EF02F03F
:1001F80056D02A500F0B300F026E040E66EC01F039
:1002080034D02A380F0B300F026E030E66EC01F063
:100218002CD029500F0B300F026E020E66EC01F045
:1002280024D029C009F0F00E0916D8B408D029380E
:100238000F0B300F026E010E66EC01F016D0200E87
:10024800026E010E66EC01F010D00F013FB704D02A
:10025800000E0B6E3A0E03D0000E0B6E200E0A6EC7
:100268000AC002F0050E66EC01F0F00ECE2628D08A
:10027800200E026EFF0E66EC01F00F013F810F01A8
:100288003F930F013FB9FDD73ACF29F03BCF2CF070
:100298003ACF2BF03BCF2AF0000E286E11D0285011
:1002A800010AD8B4A6D7030AD8B4ABD7010AD8B480
:1002B800B0D7070AD8B4B5D7010AD8B4C6D7D8D7A3
:1002C800282A1200076E1CD0000E18D0A00E16D0D7
:1002D800400E14D0D00E036EFF0E046E0250056E51
:1002E800066A03500526045006221E0E0524D96E00
:1002F800000E0620DA6EDF5001D0020E086E29D0FB
:100308000250200AD8B4E0D70D0AD8B4E1D71D0AA4
:10031800D8B4E0D7010AD8B4DDD7030AD8B4DAD7FD
:10032800010AD8B4D7D7070AD8B4D4D7010AD8B4A1
:10033800D1D7030AD8B4CED7010AD8B4CBD70F0A7D
:10034800D8B4C8D7010AD8B4C5D7030AD8B4BED719
:10035800D4D7000E63EC02F00850A6EC02F0075068
:1003680063EC02F01200000E066E04AE06D0036CB9
:10037800041ED8B0042A010E066E02AE06D0016C27
:10038800021ED8B0022A010E061A000E086E000ED0
:10039800076E03500410D8B41CD0010E056E04D0AB
:1003A800D89003360436052A04AEFAD7D890073613
:1003B80008360350015C04500258D8A005D00350F9
:1003C800015E0450025A0780D89004320332052E89
:1003D800EDD70650D8B404D0076C081ED8B0082A48
:1003E80007C001F008C002F01200000E066E02AE4F
:1003F80006D0016C021ED8B0022A010E066E04AEA9
:1004080004D0036C041ED8B0042A03500410D8B4D6
:1004180018D0010E056E04D0D89003360436052A8C
:1004280004AEFAD70350015C04500258D8A004D097
:100438000350015E0450025AD89004320332052E4C
:10044800F1D70650D8B404D0016C021ED8B0022AE5
:1004580001C001F002C002F01200FC0ED3160F0119
:100468004C91710E926E010E936E3E0E946E0F01BA
:1004780048691F0E0F01496F8D0ECD6E9D80550E78
:10048800A76EAA0EA76E0F013F8BA00E0F013F6F3C
:10049800000E0F013E6FF19CF292F288020E0E01DF
:1004A800E16FF19AF090F0860D0E0E01E26FF1986F
:1004B800F092F088F28CF28E030000F0FDD7016E06
:1004C8000104D8A402D0898201D08992020E0118B1
:1004D800D8A402D0898401D08994030E0118D8A425
:1004E80002D08B8E01D08B9E040E0118D8A402D0A6
:1004F8008B8C01D08B9C050E0118D8A402D089865C
:100508001200899612002C6A2B6A2A6A296A400E00
:10051800F66E050EF76E000EF86E00EE1EF010EE89
:100528000BF00900F5CFEEFFE550E150FAE12D9010
:100538002D92000131EF02F0BE90ECF8D27A7EB233
:03054800FEFA01B7
:0A054C00016E0150FF0A8A6E1200D2
:020000040001F9
:08FFF8009CF718FAF2F8FFFB78
:00000001FF
