:04000000FAEF00F023
:100008002E82FACF0EF0FBCF0FF0E9CF10F0EACF37
:1000180011F0E1CF12F0E2CF13F0D9CF14F0DACF1C
:1000280015F0F3CF16F0F4CF17F0F6CF18F0F7CF9E
:1000380019F0F8CF1AF0F5CF1BF0F2B8F2A20AD0F7
:10004800F292F29E3A0E026EFF0EC3EC01F00F011F
:100058004D8F0300F0B6F0A052D0F09080BA4FD088
:10006800200E026EFF0EC3EC01F00F013F910F014D
:100078003F930F013FB9FDD73BCF1CF01CC00CF0DC
:100088000C3A0F0E0C160C500A0D1CC00DF00F0E7A
:100098000D160D50F326000EF422010EF324016E06
:1000A800000EF420026E000E046E3C0E036E56EC39
:1000B80002F001501C6E0F013F910F013F931CC0CD
:1000C80001F0026A000E046E0A0E036E56EC02F08E
:1000D80001C00CF002C00DF00F0E0C161CC001F090
:1000E800026A000E046E0A0E036E14EC02F0013868
:1000F800F00B0C240F013B6F000E0F013A6FF0B8A4
:10010800F0A24FD0F09282B44CD0200E026EFF0EB7
:10011800C3EC01F00F013F810F013F930F013FB97D
:10012800FDD73ACF1DF01DC00CF00C3A0F0E0C167F
:100138000C500A0D1DC00DF00F0E0D160D50F326B4
:10014800000EF422010EF324016E000EF420026E5C
:10015800000E046E180E036E56EC02F001501D6E70
:100168000F013F810F013F931DC001F0026A000E8D
:10017800046E0A0E036E56EC02F001C00CF002C0C9
:100188000DF00F0E0C161DC001F0026A000E046E71
:100198000A0E036E14EC02F00138F00B0C240F0168
:1001A8003A6F9DB09EA004D09E90CF68FCEC00F002
:1001B8001BC0F5FF1AC0F8FF19C0F7FF18C0F6FFFB
:1001C80017C0F4FF16C0F3FF15C0DAFF14C0D9FF3B
:1001D80013C0E2FF12C0E1FF11C0EAFF10C0E9FF3F
:1001E8000FC0FBFF0EC0FAFF2E921100B2EF02F013
:1001F80056D02B500F0B300F026E040EC3EC01F0DB
:1002080034D02B380F0B300F026E030EC3EC01F005
:100218002CD02A500F0B300F026E020EC3EC01F0E7
:1002280024D02AC009F0F00E0916D8B408D02A380C
:100238000F0B300F026E010EC3EC01F016D0200E2A
:10024800026E010EC3EC01F010D00F013FB704D0CD
:10025800000E0B6E3A0E03D0000E0B6E200E0A6EC7
:100268000AC002F0050EC3EC01F0F00ECE2628D02D
:10027800200E026EFF0EC3EC01F00F013F810F014B
:100288003F930F013FB9FDD73ACF2AF03BCF2DF06E
:100298003ACF2CF03BCF2BF0000E296E11D029500D
:1002A800010AD8B4A6D7030AD8B4ABD7010AD8B480
:1002B800B0D7070AD8B4B5D7010AD8B4C6D7D8D7A3
:1002C800292A1200FC0ED3160F014C91000E926ED3
:1002D800000E936E3F0E946E000E0F01486F000ED5
:1002E8000F01496F8D0ECD6E9D80550EA76EAA0E1B
:1002F800A76E0F013F8BA00E0F013F6F000E0F017D
:100308003E6FF19CF292F288020E0E01E16FF19AB3
:10031800F090F0860D0E0E01E26FF198F092F088E1
:10032800F28CF28E0D0E1E6EFC0EE82EFED71E2EDF
:10033800FCD78980898289848986898A8B8C8B8E6F
:100348008A808A828A848A868A888A8A8A8C8A8E1D
:100358000D0E1E6EFC0EE82EFED71E2EFCD78990C1
:10036800899289948996898A8B8C8B8E8A808A82D5
:100378008A848A868A988A9A8A9C8A9ED3D7076EA4
:100388001CD0000E18D0A00E16D0400E14D0D00EDF
:10039800036EFF0E046E0250056E066A03500526B2
:1003A800045006221F0E0524D96E000E0620DA6EB0
:1003B800DF5001D0020E086E29D00250200AD8B4AE
:1003C800E0D70D0AD8B4E1D71D0AD8B4E0D7010A9E
:1003D800D8B4DDD7030AD8B4DAD7010AD8B4D7D746
:1003E800070AD8B4D4D7010AD8B4D1D7030AD8B4E5
:1003F800CED7010AD8B4CBD70F0AD8B4C8D7010AC8
:10040800D8B4C5D7030AD8B4BED7D4D7000E8EEC5B
:1004180002F00850D1EC02F007508EEC02F0120006
:10042800000E066E04AE06D0036C041ED8B0042A73
:10043800010E066E02AE06D0016C021ED8B0022A6A
:10044800010E061A000E086E000E076E0350041007
:10045800D8B41CD0010E056E04D0D89003360436EB
:10046800052A04AEFAD7D890073608360350015C3F
:1004780004500258D8A005D00350015E0450025A17
:100488000780D89004320332052EEDD70650D8B431
:1004980004D0076C081ED8B0082A07C001F008C0AD
:1004A80002F01200000E066E02AE06D0016C021EAB
:1004B800D8B0022A010E066E04AE04D0036C041EE6
:1004C800D8B0042A03500410D8B418D0010E056E11
:1004D80004D0D89003360436052A04AEFAD7035060
:1004E800015C04500258D8A004D00350015E0450A7
:1004F800025AD89004320332052EF1D70650D8B4E8
:1005080004D0016C021ED8B0022A01C001F002C05A
:1005180002F01200016E0104D8A402D0898201D031
:100528008992020E0118D8A402D0898401D0899436
:10053800030E0118D8A402D08B8E01D08B9E040E16
:100548000118D8A402D08B8C01D08B9C050E011801
:10055800D8A402D089861200899612002D6A2C6AC6
:100568002B6A2A6A960EF66E050EF76E000EF86E66
:1005780000EE1FF010EE0BF00900F5CFEEFFE5508E
:10058800E150FAE12E902E92000166EF01F0000191
:090598000203040506070809012D
:0A05A200016E0150FF0A8A6E12007C
:020000040001F9
:08FFF8009CF718FAF2F8FFFB78
:00000001FF
