:08000000803102288731F22F44
:1005B400640080010131890BDB2A0034F1000C3026
:1005C400F000700826009304710820009B001C159D
:1005D4000800F1000C30F000700826009A0471083D
:1005E40020009B001C150800F1000C30F00070087E
:1005F40025009304710820009B001C150800F100DD
:100604000C30F000700825009A04710820009B004B
:100614001C1508002000211F112B22008D1720001B
:10062400211E080022008D130800F001F1012000B2
:10063400911A272B0130F0070030F13D033071028D
:10064400E83003197002031C192B23001908080051
:100654007108F3007008F200F336F20CF336F20C72
:1006640072082600910070080339F2000330F23555
:10067400FF3E031D392B7235F30073089304080001
:100684007108F3007008F200F336F20CF336F20C42
:1006940072082600980070080339F2000330F2351E
:1006A400FF3E031D512B7235F30073089A040800B2
:1006B4007108F3007008F200F336F20CF336F20C12
:1006C40072082500910070080339F2000330F235F6
:1006D400FF3E031D692B7235F30073089304080071
:1006E4007108F3007008F200F336F20CF336F20CE2
:1006F40072082500980070080339F2000330F235BF
:10070400FF3E031D812B7235F30073089A04080021
:100714002000201C08000030F000F10083312A235F
:1007240083310030F000F100833142238331003003
:10073400F000F10083315A2383310030F000F100DE
:100744008331722308008B0121000D158D161030A2
:1007540023009B0090309D0024309E0070302100C7
:1007640099008B132200911323008C0121008C012A
:1007740023008D01023021008D0022001E149D17DC
:1007840020001C14080020009C14FF308231E02259
:100794008331FF308231EB228331FF308231F62204
:1007A4008331FF308331012383310030F000F100C5
:1007B40083312A2383310030F000F1008331422356
:1007C40083310030F000F10083315A23833100304B
:1007D400F000F100833172230800F000F101F2010E
:1007E400F301F40123009D181D121D162000911A17
:1007F400082C0130F1070030F23D00307202643001
:1008040003197102031CF82BF101F20123001908EA
:100814007006031D0F2C013008000130F30700306F
:10082400F43D003074020A3003197302031CF42BE4
:10083400F301F401003008008331A52384318331AE
:10084400C52384314A2CF801F90183318A23843188
:1008540085315A25843184318624843183310C23B3
:10086400843186312E2684318731102784318431B6
:100874004D248431013A0319252C0130F807003046
:10088400F93D003079020A3003197802031C392C2F
:10089400F801F901392CF601F70180308331EF2397
:1008A4008431013A031D842CF601F70100307702EC
:1008B4000630031976020318742C8331172384310C
:1008C400F5007608203E8600870175088100013016
:1008D400F6070030F73D0030770206300319760240
:1008E400031C5F2C20002108220723072407250767
:1008F40020077F398331EF238431013A031D842C8F
:1009040001300800003008002000A01CE52C2F084E
:100914003906031D8F2C2E083806031DBC2C3908FC
:10092400803AF40083307402031D9A2CC0303802DC
:100934000318AA2C30302000B8070030B93D39081C
:10094400F1003808F00083317223843122000C173F
:1009540020002F08803AF40083307402031DB42C65
:10096400C0302E020318080030302000AE070030DB
:10097400AF3D08003908803AF40080307402031D4A
:10098400C52C01303802031CD32CD0302000B8070A
:10099400FF30B93D3908F1003808F0008331722383
:1009A400843120002F08803AF40080307402031D43
:1009B400DD2C01302E02031C0800D0302000AE07CD
:1009C400FF30AF3D0800201D432D31083906031DBB
:1009D400ED2C30083806031D1A2D3908803AF4002E
:1009E40083307402031DF82CC03038020318082D1C
:1009F40030302000B8070030B93D3908F10038081C
:100A0400F00083317223843122000C13200031085A
:100A1400803AF40083307402031D122DC03030027A
:100A24000318080030302000B0070030B13D080042
:100A34003908803AF40080307402031D232D0130FC
:100A44003802031C312DD0302000B807FF30B93DE7
:100A54003908F1003808F000833172238431200012
:100A64003108803AF40080307402031D3B2D0130BC
:100A74003002031C0800D0302000B007FF30B13D25
:100A840008003908803AF40080307402031D4C2DAC
:100A940001303802031C0800D0302000B807FF30B2
:100AA400B93D3908F1003808F00083317223080099
:100AB4002000A01DB92D33083B06031D632D320809
:100AC4003A06031D902D3B08803AF40083307402EB
:100AD400031D6E2DC0303A0203187E2D30302000E5
:100AE400BA070030BB3D3B08F1003A08F0008331FF
:100AF4005A23853122008C1720003308803AF400F1
:100B040083307402031D882DC0303202031808009C
:100B140030302000B2070030B33D08003B08803A73
:100B2400F40080307402031D992D01303A02031C35
:100B3400A72DD0302000BA07FF30BB3D3B08F100A1
:100B44003A08F00083315A23853120003308803A73
:100B5400F40080307402031DB12D01303202031CF5
:100B64000800D0302000B207FF30B33D0800201E3B
:100B7400172E35083B06031DC12D34083A06031D04
:100B8400EE2D3B08803AF40083307402031DCC2D13
:100B9400C0303A020318DC2D30302000BA07003090
:100BA400BB3D3B08F1003A08F00083315A238531FC
:100BB40022008C1320003508803AF400833074023C
:100BC400031DE62DC0303402031808003030200025
:100BD400B4070030B53D08003B08803AF40080308B
:100BE4007402031DF72D01303A02031C052ED03088
:100BF4002000BA07FF30BB3D3B08F1003A08F00083
:100C040083315A23853120003508803AF40080303E
:100C14007402031D0F2E01303402031C0800D0306F
:100C24002000B407FF30B53D08003B08803AF400CB
:100C340080307402031D202E01303A02031C080088
:100C4400D0302000BA07FF30BB3D3B08F1003A0822
:100C5400F00083315A23080077302000240203185F
:100C6400942E0B302402031C942E2508031D942E6D
:100C74002B087D06031D402E2A087C06031D6C2EBE
:100C84007D08803AF40083307402031D4B2EF0304B
:100C94007C0203185A2E3030FC070030FD3D7D08DD
:100CA400F1007C08F00083312A23863122008C1461
:100CB40020002B08803AF40083307402031D642E54
:100CC400F0302A020318080030302000AA07003050
:100CD400AB3D08007D08803AF40080307402031DA7
:100CE400752E01307C02031C822ED030FC07FF30AD
:100CF400FD3D7D08F1007C08F00083312A23863114
:100D040020002B08803AF40080307402031D8C2EDE
:100D140001302A02031C0800D0302000AA07FF304B
:100D2400AB3D0800773024020318FA2E0B3024025E
:100D3400031CFA2E7F302506031DFA2E2D087D068E
:100D4400031DA62E2C087C06031DD22E7D08803A96
:100D5400F40083307402031DB12EF0307C020318BA
:100D6400C02E3030FC070030FD3D7D08F1007C08CA
:100D7400F00083312A23863122008C1020002D08B4
:100D8400803AF40083307402031DCA2EF0302C0222
:100D94000318080030302000AC070030AD3D0800D7
:100DA4007D08803AF40080307402031DDB2E01308C
:100DB4007C02031CE82ED030FC07FF30FD3D7D088B
:100DC400F1007C08F00083312A23863120002D08AD
:100DD400803AF40080307402031DF22E01302C029C
:100DE400031C0800D0302000AC07FF30AD3D0800E4
:100DF4007D08803AF40080307402031D032F013013
:100E04007C02031C0800D030FC07FF30FD3D7D0848
:100E1400F1007C08F00083312A2308007730200099
:100E240022020318762F0B302202031C762F23088C
:100E3400031D762F27087B06031D222F26087A061A
:100E4400031D4E2F7B08803AF40083307402031D87
:100E54002D2FF0307A0203183C2F3030FA0700307F
:100E6400FB3D7B08F1007A08F0008331422387318F
:100E740022000C1420002708803AF4008330740206
:100E8400031D462FF03026020318080030302000DE
:100E9400A6070030A73D08007B08803AF4008030A4
:100EA4007402031D572F01307A02031C642FD030C3
:100EB400FA07FF30FB3D7B08F1007A08F00083312C
:100EC4004223873120002708803AF40080307402DE
:100ED400031D6E2F01302602031C0800D0302000B1
:100EE400A607FF30A73D0800773022020318DC2F45
:100EF4000B302202031CDC2F7F302306031DDC2F62
:100F040029087B06031D882F28087A06031DB42FA1
:100F14007B08803AF40083307402031D932FF03071
:100F24007A020318A22F3030FA070030FB3D7B0809
:100F3400F1007A08F00083314223873122000C103B
:100F440020002908803AF40083307402031DAC2F7A
:100F5400F03028020318080030302000A8070030C1
:100F6400A93D08007B08803AF40080307402031D18
:100F7400BD2F01307A02031CCA2FD030FA07FF308C
:100F8400FB3D7B08F1007A08F0008331422387316E
:100F940020002908803AF40080307402031DD42F05
:100FA40001302802031C0800D0302000A807FF30BD
:100FB400A93D08007B08803AF40080307402031DC8
:100FC400E52F01307A02031C0800D030FA07FF3005
:100FD400FB3D7B08F1007A08F000833142230800CE
:100FE400FA01FB01FC01FD01203084000030850082
:0C0FF4001D308231DA22200084311E2CD6
:020000040001F9
:04000E0084CFFFDBC1
:00000001FF
