:08000000803102288731F72F3F
:1009E40020000F1500320032003220000F110800E1
:1009F400F300F201731C022D7008F1007108F20774
:100A04000310F00D0310F30C7308031DFC2C720883
:100A140008000130F4000030F50075087102031D70
:100A2400152D74087002031C08000330F30097307E
:100A3400F200F20B1B2DF30B1B2D00320130F407D7
:100A44000030F53D0F2DF401F501701C2D2D7208B9
:100A5400F4077308F53D0130F235F30D890B2E2DA3
:100A64000130F136F00C890B332D70087104031D2D
:100A7400272D7508F1007408F000080020008E137B
:100A840021008E1720000F128F128F140F140F12D3
:100A9400003220000F15003220000F110032003206
:100AA4000032003020008E1B0130F0000F168F162C
:100AB4008F1021008E137008080020000F130630D9
:100AC400F400F40B632D000020000F170330F50031
:100AD4009730F400F40B6C2DF50B6C2D0032F10102
:100AE400F10A3F3086314F2685310230F400740814
:100AF400F1003F3086314F268531F101F10AC030D3
:100B040086314F2685310230F4007408F100C0307C
:100B140086314F2608002000B001B10129083007B2
:100B240084002A08313D85001200031908000630AC
:100B3400AD002D08F00030088431FA2485312000FE
:100B44002B07AE002E08FB002C08AF002F08FC007A
:100B54002908300784002A08313D850000088531C2
:100B6400C12585319630F0000030F10085310B2528
:100B7400853101302000B0070030B13D902D2000B8
:100B8400A600A701A8012808803AA000803020020E
:100B9400031DCE2D05302702031808007B08200012
:100BA4002707A0002008F6007C08A1002108F70010
:100BB4002608E03EF000FF3003180030F100053055
:100BC400F2000030F3008531252585310030200006
:100BD400A2008830A30070082207A4007108233DF6
:100BE400A5002408270784002508283D850000085F
:100BF40087315727853101302000A7070030A83DF1
:100C0400C52DF101F10AC03086314F2686310230FC
:100C1400FB007B08F100C03086314F26863120006E
:100C2400A001A1012108803AFB0080307B0208303A
:100C340003192002031808002000A201A3012308BD
:100C4400803AFB0080307B02031D2A2E8030220272
:100C54000318492E20002208FB007B08F600200818
:100C6400FC007C08F70000308731572786310130BB
:100C74002000A2070030A33D2308803AFB00803007
:100C84007B02031D472E80302202031C2C2E0130D0
:100C94002000A0070030A13D142EF300853140252B
:100CA4008631003A031D502E7103031D5D2E200072
:100CB4000F128F16602E20008F120F168F100F1038
:100CC400731C672E20000E14692E20000E1073086A
:100CD400F2000130F236890B6C2E721C742E200047
:100CE4008E14762E20008E107308F2000230F23635
:100CF400890B792E721C812E20000E15832E200064
:100D04000E117308F2000330F236890B862E721C22
:100D14008E2E20008D15902E20008D117308F20068
:100D24000430F236890B932E721C9B2E20000D1674
:100D34009D2E20000D127308F2000530F236890B47
:100D4400A02E721CA82E20008E16AA2E20008E1211
:100D54007308F2000630F236890BAD2E721CB52EE4
:100D640020000E17B72E20000E137308F200073070
:100D7400F236890BBA2E721CC22E20008E17C42E96
:100D840020008E138431F22420000F168F168F104A
:100D94000F10080070302100990022009101930186
:100DA400033023008C008D018F019001033021005A
:100DB4008C008D0118308E008F01900120000F17D8
:100DC4008C018D018E018F019001823022009700E9
:100DD400013021009D00F3309E006430F0000030AB
:100DE400F10085310B25863185315F2586318631C9
:100DF40003268631863103268631E4302000A9009B
:100E04008B30AA00AB01AC0185318D2586310230CF
:100E14002000A9008C30AA00AB010230B2003208D5
:100E2400AC0085318D258631D2302000A9008B306D
:100E3400AA00AB010330B2003208AC0085318D2525
:100E4400863110302000A9008C30AA00AB01043098
:100E5400B2003208AC0085318D258631C0302000C7
:100E6400A9008B30AA00AB010630B2003208AC00F6
:100E740085318D258631F4302000A9008B30AA00FD
:100E84003730B2003208AB000730B3003308AC008F
:100E940085318D258631A030F0000F30F100853189
:100EA4000B258631FC2E03000100FA004030760247
:100EB40003186A2F0230F8007808F10076084038E9
:100EC40086314F2687310230F8007808F900742FF4
:100ED400F101F10A7608C03E403886314F26873149
:100EE400F901F90A853140258731003A031D742F31
:100EF4007908F8007808F1007708B83886314F2669
:100F040087317903031D892F20000F128B2F2000B6
:100F14008F128F100F147A1C922F20000E14942F0E
:100F240020000E107A08F8000130F836890B972F4C
:100F3400781C9F2F20008E14A12F20008E107A0879
:100F4400F8000230F836890BA42F781CAC2F20004F
:100F54000E15AE2F20000E117A08F8000330F83673
:100F6400890BB12F781CB92F20008D15BB2F2000C1
:100F74008D117A08F8000430F836890BBE2F781CDE
:100F8400C62F20000D16C82F20000D127A08F80075
:100F94000530F836890BCB2F781CD32F20008E1602
:100FA400D52F20008E127A08F8000630F836890B07
:100FB400D82F781CE02F20000E17E22F20000E13EC
:100FC4007A08F8000730F836890BE52F781CED2FE6
:100FD40020008E17EF2F20008E138431F22420007E
:100FE4000F168F168F100F100800B401B501B6014B
:100FF400B701B801B90120008631CC2E0034003489
:10100400003400340034003400344F3400340034ED
:101014000034073400340734003414347F34143477
:101024007F34143424342A347F342A34123423345D
:101034001334083464346234363449345534223435
:1010440050340034053403340034003400341C3488
:101054002234413400340034413422341C3400340A
:10106400143408343E3408341434083408343E3418
:101074000834083400345034303400340034083434
:1010840008340834083408340034603460340034DC
:101094000034203410340834043402343E345134DF
:1010A400493445343E34003442347F3440340034CF
:1010B4004234613451344934463421344134453462
:1010C4004B3431341834143412347F34103427340C
:1010D40045344534453439343C344A34493449344C
:1010E400303401347134093405340334363449342A
:1010F40049344934363406344934493429341E34A5
:101104000034363436340034003400345634363443
:101114000034003408341434223441340034143498
:101124001434143414341434003441342234143454
:101134000834023401345134093406343234493425
:10114400793441343E347E341134113411347E34D4
:101154007F3449344934493436343E34413441349B
:10116400413422347F344134413422341C347F34BA
:1011740049344934493441347F3409340934093415
:1011840001343E344134493449347A347F340834A8
:10119400083408347F34003441347F34413400341B
:1011A4002034403441343F3401347F34083414341F
:1011B400223441347F3440344034403440347F342A
:1011C40002340C3402347F347F3404340834103451
:1011D4007F343E344134413441343E347F34093425
:1011E4000934093406343E344134513421345E34F4
:1011F4007F34093419342934463446344934493463
:1012040049343134013401347F34013401343F34FE
:101214004034403440343F341F342034403420348C
:101224001F343F344034383440343F34633414344E
:1012340008341434633407340834703408340734FD
:101244006134513449344534433400347F344134B7
:10125400413400340234043408341034203400346B
:10126400413441347F3400340434023401340234D0
:101274000434403440344034403440340034013485
:101284000234043400342034543454345434783420
:101294007F34483444344434383438344434443463
:1012A4004434203438344434443448347F34383477
:1012B400543454345434183408347E3409340134E6
:1012C40002340C345234523452343E347F340834B1
:1012D400043404347834003444347D3440340034E9
:1012E4002034403444343D3400347F3410342834C2
:1012F40044340034003441347F34403400347C348A
:1013040004341834043478347C3408340434043415
:101314007834383444344434443438347C341434E5
:1013240014341434083408341434143418347C3425
:101334007C34083404340434083448345434543485
:101344005434203404343F344434403420343C3462
:101354004034403420347C341C3420344034203431
:101364001C343C344034303440343C344434283429
:101374001034283444340C345034503450343C3415
:101384004434643454344C344434003408343634EF
:1013940041340034003400347F34003400340034E9
:1013A4004134363408340034083408342A341C34C4
:1013B400083408341C342A34083408340034003423
:1013C4000F3408340834083408340F34003400343B
:1013D4002C343234023432342C3444343C34043427
:1013E4007C34443463345534493441344134143402
:1013F40014347C341434123444343C3414341434EB
:1014040074347C3414341C3414347C341034103468
:101414005434103410347F347F347F347F347F3439
:101424000F340F340F340F340F34003400340034CD
:101434000034003400340034003400340034003408
:1014440000340034003400340034003400340034F8
:1014540000340034003400340034003400340034E8
:1014640000340034003400340034003400340034D8
:1014740000340034003400340034003400340034C8
:1014840000340034003400340034003400340034B8
:1014940000340034003400340034003400340034A8
:1014A4000034003400340034003400340034003498
:1014B4000034003400340034003400340034003488
:1014C4000034003400340034003400340034003478
:1014D4000034003400340034003400340034003468
:1014E4000034003400340034003400340034003458
:1014F4000034003400340034003400340034003448
:101504000034003400347034503470340034003407
:10151400003400340F34013401344034403478341E
:1015240000340034103420344034003400340034A7
:1015340018341834003400340A340A344A342A344F
:101544001E3404342434343414340C34203410342D
:10155400783404340034183408344C34483438347F
:1015640048344834783448344834483428341834B7
:101574007C34083408347C34083428341834403437
:1015840048344834783440345434543454347C34F7
:1015940000341834003458344034383408340834AF
:1015A400083408340834013441343D3409340734F0
:1015B400203410347C34023401340E340234433485
:1015C40022341E34423442347E344234423422348F
:1015D40012340A347F34023442343F340234423405
:1015E4003E340A340A347F340A340A340834463424
:1015F400423422341E340434033442343E3404343A
:1016040042344234423442347E3402344F3422343D
:101614001F3402344A344A34403420341C344234B3
:10162400223412342A34463402343F3442344A34A5
:10163400463406344834403420341E3408344634A6
:101644004A3432341E340A344A343E3409340834B9
:101654000E3400344E3420341E34043445343D34C6
:101664000534043400347F340834103400344434F2
:1016740024341F3404340434403442344234423475
:10168400403442342A3412342A3406342234123494
:101694007B34163422340034403420341F34003474
:1016A400783400340234043478343F3444344434D9
:1016B4004434443402344234423422341E34043434
:1016C4000234043408343034323402347F34023483
:1016D400323402341234223452340E3400342A3474
:1016E4002A342A34403438342434223420347034B4
:1016F400403428341034283406340A343E344A340E
:101704004A344A3404347F34043414340C344034BA
:10171400423442347E3440344A344A344A344A34BB
:101724007E3404340534453425341C340F344034B9
:1017340020341F3400347C3400347E34803430341C
:101744007E3440342034103408347E3442344234FD
:1017540042347E340E340234423422341E34423451
:101764004234403420341834023404340134023412
:1017740000340734053407340034003454346834F6
:10178400693473342034703472346F34673472348F
:1017940061346D342034773461347334203400344C
:1017A400203420342034203467346C34633464347B
:1017B4005F3469346E346934743428342934203401
:1017C4003B340034233469346E3463346C347534FC
:1017D4006434653420343C34783463342E346834CF
:1017E4003E3400346D3461346B34653464342034F5
:1017F400623479342034B234DC34C03420340034DC
:1018040076346F346934643420346D34613469342B
:101814006E342834293420347B3400347D3400344D
:020000040001F9
:04000E00C4CFFFDC80
:00000001FF
