:0A0000008031022888018431C32CEE
:10094E00640080010131890BA82C0034F1000C30B9
:10095E00F000700826009A04710820009B001C15F8
:10096E000800F1000C30F0007008260093047108A6
:10097E0020009B001C150800FA01FB01FC01FD0183
:10098E0020308400003085000F308431A72484315C
:10099E0020008531E42D7108F3007008F20002305A
:1009AE00F336F20C890BD72C7208260098007008CB
:1009BE000339F2000330F235FF3E031DE22C72358F
:1009CE00F30073089A0408007108F3007008F2002F
:1009DE000230F336F20C890BF02C720826009100CF
:1009EE0070080339F2000330F235FF3E031DFB2C75
:1009FE007235F30073089304080020001C143F3076
:100A0E008431B82485313F308431AD248531FF30B7
:100A1E00F0000330F1008431EB248531FF30F0001B
:100A2E000330F1008431D22485310800F001F10148
:100A3E002F2D0130F0070030F13D03307102E83008
:100A4E0003197002031C2C2D2D2D2F2D352D352D18
:100A5E002000911E332D342D202D352D2300190805
:100A6E00382D08008B0121008D140D151030230038
:100A7E009B0090309D0024309E0070302100990024
:100A8E008B132200911323008C0121008C01230073
:100A9E008D01023021008D0022001E149D132000B6
:100AAE001C140800F000F101F201F301F4015F2DB6
:100ABE0023009D1C632D642D652D1D121D16772D93
:100ACE000130F1070030F23D00307202643003193C
:100ADE007102031C732D742D772DF101F2017D2D02
:100AEE002000911E7B2D7C2D672D7D2D2300190856
:100AFE007006031D832D842D872D01309B2D9B2D7C
:100B0E000130F3070030F43D003074020A3003194F
:100B1E007302031C932D942D5F2DF301F40100300D
:100B2E009B2D9B2D5F2D5F2D0800F601F701803068
:100B3E00853159258531013A031DA62DA72DE12DAD
:100B4E00F601F70100307702063003197602031C16
:100B5E00B12DB22DB42DCC2DCC2D85311D25853149
:100B6E00F5007608203E8600870175088100013069
:100B7E00F6070030F73D0030770206300319760293
:100B8E00031CCA2DCB2DB42DCC2D200021082207FD
:100B9E0023072407250720077F39853159258531FD
:100BAE00013A031DDB2DDC2DE12D0130E32DE32D6C
:100BBE00E12DE12D0030E32D0800853139258531F9
:100BCE00853104258531F801F901ED2D85319C25FE
:100BDE008531013A031DF42DF52DEB2FF801F901A6
:100BEE0022000D130030F0000030F1008431EB24B0
:100BFE0085310030F0000030F1008431D22485318F
:100C0E002000A01D0B2E0C2E3B2EFC01FD017D089D
:100C1E00803AFF0081307F02031D172E2D307C029B
:100C2E00031C1A2E1B2E1D2E7C2E7C2E22000D1523
:100C3E007D08F101F1077C08F001F0078431D22420
:100C4E0085310130FC070030FD3D7D08803AFF0004
:100C5E0081307F02031D352E2D307C02031C382E71
:100C6E00392E1D2E7C2E7C2EA01C3E2E3F2E6E2E3F
:100C7E00FA01FB017B08803AFF0081307F02031DE1
:100C8E004A2E2D307A02031C4D2E4E2E502E7C2EC7
:100C9E007C2E22000D117B08F101F1077A08F0017C
:100CAE00F0078431D22485310130FA070030FB3D44
:100CBE007B08803AFF0081307F02031D682E2D30A5
:100CCE007A02031C6B2E6C2E502E7C2E7C2E7C08F2
:100CDE00FF3EFC00FF307D3DFD007A08FF3EFA002E
:100CEE00FF307B3DFB007C2E7C2E2000211F802EB2
:100CFE00812E832E22000D172000211E872E882E76
:100D0E00972E0030F0000030F1008431EB24853155
:100D1E000030F0000030F1008431D2248531972E5E
:100D2E0064302000250203189D2E9E2EAB2E2530FA
:100D3E002502031CA32EA42EAB2E24087F3A0319E2
:100D4E00A92EAA2EBE2EAB2E643023020318B02E6F
:100D5E00B12EEF2E25302302031CB62EB72EEF2E0A
:100D6E0022087F3A031DBC2EBD2EEF2EBE2EAA01E9
:100D7E00AB012B08803AFF0080307F02031DC92E85
:100D8E00F1302A02031CCC2ECD2ECF2E532F532FF3
:100D9E0022008D1520002B08F101F1072A08F00121
:100DAE00F0078431EB24853101302000AA07003092
:100DBE00AB3D2B08803AFF0080307F02031DE92EE9
:100DCE00F1302A02031CEC2EED2ECF2E532F532F73
:100DDE006430200025020318F52EF62E012F253043
:100DEE002502031CFB2EFC2E012F2408031D002FB1
:100DFE00132F012F643023020318062F072F442FC1
:100E0E0025302302031C0C2F0D2F442FA208031D87
:100E1E00112F122F442F132FA801A9012908803A50
:100E2E00FF0080307F02031D1E2FF1302802031CAD
:100E3E00212F222F242F532F532F22008D112000CC
:100E4E002908F101F1072808F001F0078431EB249D
:100E5E00853101302000A8070030A93D2908803ACD
:100E6E00FF0080307F02031D3E2FF1302802031C4D
:100E7E00412F422F242F532F532F20002A08FF3E9D
:100E8E00AA00FF302B3DAB002808FF3EA800FF3024
:100E9E00293DA900532F532F013020002C062D047D
:100EAE00031D5A2F5B2F8A2F643025020318602FE3
:100EBE00612F6E2F25302502031C662F672F6E2F94
:100ECE0024087F3A03196C2F6D2F802F6E2F6430FC
:100EDE0023020318732F742F8A2F25302302031C2D
:100EEE00792F7A2F8A2F22087F3A031D7F2F802F8A
:100EFE008A2F22008D15FF30F0000330F10084316F
:100F0E00EB248531CC2F013020002C062D04031D3F
:100F1E00912F922FBE2F643025020318972F982FF2
:100F2E00A32F25302502031C9D2F9E2FA32F2408AF
:100F3E00031DA22FB42FA32F643023020318A82F52
:100F4E00A92FBE2F25302302031CAE2FAF2FBE2F8D
:100F5E00A208031DB32FB42FBE2F22008D11FF3018
:100F6E00F0000330F1008431EB248531CC2F7C0866
:100F7E00FF3EFC00FF307D3DFD007A08FF3EFA008B
:100F8E00FF307B3DFB00CC2FCC2F2000201CD02F20
:100F9E00D12FDC2F2D082C04031DD62FD72FDC2F9D
:100FAE000130AC000030AD00DC2F201CDF2FE02F15
:100FBE00ED2D01302C062D04031DE62FE72FED2D10
:100FCE00AC01AD01ED2DED2D0130F8070030F93DEE
:100FDE00003079020A3003197802031CF72FF82F1C
:100FEE00ED2DF801F901ED2DED2DED2DED2D8031CD
:020FFE000228C7
:020000040001F9
:04000E0084CFFFDBC1
:00000001FF
